:020000040000FA
:20040000000082310C2A01347E14823122008E15210091127E100900883139288F319527C3
:2004200082318B319E2382312200D1003308BC0051228231BB012300EF01EF0A2600DD01FD
:20044000DE01AD012D08031D0800E83E86000130870081018F31AD2782313F258A00403F18
:200460000A008231003A03194C2A5008F00043088A0042080A008231003A03194C2A0130D2
:20048000F800F9012D0A462AF835F90D890B442A7808DD047908DE048D31D8258231AD0AA5
:2004A000222AFF30BF01BE002300EA012200BD01080022003E08003A03194B2B033A0319C0
:2004C000052B113A03198E2A083A0319222B013A0319482B053A0319422B3B3A0319BE2A17
:2004E0000D3A0319812A023A03198A2A053A0319482BD23A0319622B033A0319BA2BBA2B3C
:2005000008007A248231003A031D0800FF302200BE0008008631F1268231832A3B0B912ADA
:20052000862A260032082200B700260033082200B600F7003708F800F901FA010C24823193
:20054000003A031D08002430F000F101BD238231A0308600013087006330840099308500FD
:2005600024302200D90059080319BA2A12001E00D90BB62AFD302200BE0008002700500843
:20058000F00002303F258A00403F0A00823173082200E5007208E4007108E3007008E20079
:2005A00027005008F00004303F258A00403F0A00823170082200DE007108DF00E001E101DB
:2005C00065082300A000220064082300A100220063082300A200220062082300A3002200D3
:2005E00061082300A400220060082300A50022005F082300A60022005E082300A70008309D
:2006000073258231BD238231BA2A3B0B082B862A1230B600B701F000F101BD238231E601E3
:200620006608A03E86000130870066083F3E840003308500000881001230E60A66020318CB
:20064000BA2A102B03302300A000A1018731CB2782313F258A00403F0A008331003A031D01
:20066000342B2200DB01372B80302200DB00DC015B082300A200A301043073258231BD2306
:200680008231BA2A26008F31C82782318525823167258231862AF701F801F901FA010C24D9
:2006A0008231003A031D0800260041080F39063A031D5E2B22002C0B5E2B862A8D31D82538
:2006C0008231482B3C0803196A2B3C0886008701811B080026002B08031D782B2A08031D9B
:2006E000782B29084030031D792B2802031C7E2B40302200DD005F258231862B2808220057
:20070000DD002600A801A901AA01AB0122005D08D900DA015A083702031D902B59083602E2
:20072000031C972B5D08B602031CB703AD2BE6015D0866020318AD2B360837040319A52BFE
:200740000130B6020030B73BAB2B6608A03E8600013087008101E60A982BA03079255D0826
:20076000F30001308B319E2382312200BC007F258231842A7F308C31012C7008F2007108C6
:20078000F300F401F501750826002B02031DD22B74082A02031DD22B73082902031DD22B06
:2007A000720828020318DE2B6725260029082200B700260028082200B6000800220037081E
:2007C0007102031DE52B360870020318EB2B7108B7007008B6003608F2003708F300F401E0
:2007E000F50126002808F6002908F7002A08F8002B08F9007208F6027308F73B7408F83B6B
:200800007508F93B79082200AB007808AA007708A9007608A80008007A0879047804770463
:20082000031D152CFC01FC0A162CFC0122003B0B292C7C0B292C003422003F0B242C2A3032
:200840003E06031D00343A2C2A303E06031900343A2C7A0826002B06031D382C79082A0638
:20086000031D382C78082906031D382C7708280603191C2C26002B087A02031D492C2A0814
:200880007902031D492C29087802031D492C28087702FB01031CFB0A023022003F062A304C
:2008A000031D662C3E0603195A2C7C08031D5A2C0530742C3B0B5F2CFD01FD0A752C7C0BA3
:2008C000632C0430742C7B0B582C612C3E06031D6B2C0330742C3B0B6E2C5C2C7C0B712CC4
:2008E000732C7B0B692C0230FD007D088C3101247D080800122D202582318A258231890BEE
:200900007D2C0C248231003A031D1D2D2300EA01EA0A220036083704031D912C2300EA011F
:200920001D2D0130B6020030B73B02302300EA0022003C080319A12C3C0886008701811BE6
:200940001D2D572582314F258231A030E2012300E9000330EA006D258231031DB32C2300B4
:20096000EA01EA0A1D2D04302300EA0022003C080319BF2C3C0886008701811B1D2D270041
:2009800050082100BF00250063082100C300250062082100C200250061082100C1002500A4
:2009A00060082100C000A030C40024006208E20A2100C50008303F258A00403F0A00843196
:2009C000013A0319F42C02302200AC0026004108F0390338C1000130CB01CC01F001F00A57
:2009E0008D314C2582318E2CF001F00A45258B319E2382312200BC0003302300EA005F2534
:200A0000823140302200A8020030A93BAA3BAB3B1D2D023022008F31FB2782318D314C25A6
:200A200082318E2C23006A088400053004020318092D903104350A3E820023006A08080043
:200A4000260031082500E300260032082500E200260033082500E100260034082500E000FA
:200A6000260036082200B700260037082200B600F7003708F8000930F901FA010800C23E98
:200A8000860003308700413F080023006908F100FF39031D0130F2004030F30001342200D4
:200AA000AB01AA010230A900A8012400080001302500E0070030E13DE23DE33D08004030ED
:200AC0002600A8020030A93BAA3BAB3B08002200A801A901AA01AB01080022002B082A0408
:200AE0002904280408002200B600B701F000F1010800F001F00AF1000130F20008002600EE
:200B00002B082A042904280408000130CC012200AC000800F735F80DF90DFA0D0800DD26F6
:200B20008531003A031D982DC1268531CF2585312400690FA32D6A0A031DA32D6B0A031938
:200B40006C0A031908006C08031DAA2D18306B02031CAE2D0530FD002030E92D6C08031DB5
:200B6000080010306B020318080069082100C20024006A082100C30024006B082100C40053
:200B8000C235C30DC40D4208FA004308FB004408FC00B72685312030FA0020301B2E8030C5
:200BA000622685310030F000F1003030F200802685311830622685310230FB009630FA00C5
:200BC0002E30890BE12DFA0BE12DFB0BE12D003208002100C1003030FA01FB01FC00B726A2
:200BE0008531FD037D0FF52D080000306226853121004108860004308700403FBF00413FB2
:200C0000C0003F08F0004008F100F201802685312100E030C10AC10A622685315E302100A1
:200C2000BF008030890B122EBF0B122E0000F83062268531F12DFD007A08FA03FB0002303A
:200C40007B02031C2D2E023062268531E326853180268531FD0AFD0A1C2E0030622685314C
:200C6000E326853180268531E030FD0AFD0A622685312F30FB00C030890B3C2EFB0B3C2E45
:200C8000F830622E8931292185319C30F200D730890B482EF20B482E00004D3062268531E5
:200CA0004330622685314830622685315030622685314E30F200EB30890B5C2EF20B5C2EDF
:200CC00000000800F00021008E10F101F01F6B2E22008E146D2E22008E100E140430F03529
:200CE000890B702E22000E100430890B752E0830F10A7102031C662E0430890B7D2E080043
:200D0000FE30F300FF30F4007F30F5007008F6007108F7007208F800F635F70DF80D7608E9
:200D2000F3057708F4057808F5057308F0007408F1007508F20021008E10F901F21FA32EE7
:200D400022008E14A52E22008E100E140430F035F10DF20D890BAA2E22000E100430890B50
:200D6000AF2E1830F90A7902031808009E2E8030622685317A08F0007B08F1007C08F20097
:200D8000802E023089312E218531D4268531CA268531422E0430890BCB2E21008E14220048
:200DA0000E1021000E10080023009D132100911222008E1521008E11080003100E1D031455
:200DC0000030093D08007D08860004308700403FFB00413FFC007B08F0007C08F100F201FE
:200DE0000800BF2F85312025863185318A258631890BF52E84310C248631003A031D292F2A
:200E0000CB2785313F2586318A00403F0A008731003A03192C2FCF2786310738DC27013073
:200E2000F0018D314C2586312200BD01292F510803191F2F510886008701811B292FF00194
:200E40008531452586318B319E232200D1000430BD0022003D0808002200BF01BF0A360802
:200E600037040319142F0330BD00A0302300E90085314F258631E10185316D258631031D2A
:200E8000172FCB2785313F2586318A00403F0A008731003A0319512FCF2786310238DC27BE
:200EA000863102302200282F510803195C2F510886008701811B292F2C08031D8F2F27003C
:200EC00050082100E5000130250060072100E60000302500613D2100E70000302500623D01
:200EE0002100E80000302500633D2100E900A030EA0024006108E10A2100EB000C308531BA
:200F00003F2586318A00403F0A008731013A03198F2FCF2786310338C100CB01CC01220072
:200F2000510A86008701D62786312600A802220056082600A93B220057082600AA3B22008C
:200F400058082600AB3B2200510A8600D6278631A8025608A93B5708AA3B5808AB3B0330C5
:200F6000282F85315725863101302200B6020030B73BBD01BD0A292F0230AC000F2F2200E9
:200F80003D088400053004020318BC2F90310435003E8200080027005008F0000A340130A7
:200FA0002200AC0026004108F03908000108D500D601D701D8010800C1002730CB00CC01A5
:200FC00008009031822890318328903170289031832890317028903171289031762890319A
:200FE000952890317828903177289031842890318A28903170280230F001F10008000034EA
:181000009331B22B9331CC2B9331F12B94313E2C94317B2C9431A22C6E
:20101A00270033082600E200270032082600E100270031082600E000270030082600DF001A
:20103A0027003308031D2C283208031D2C28C13030021230313B03182C280230D828330865
:20105A00031D080001303002C230313B0130323B031808000130D8282400FF30E900EA0075
:20107A00EB00EC002630840090308500C23086000330870013309E310326883121002D30BC
:20109A00EE0184000130850028309D31FD258831E03084000130850010309D31FD258831D9
:2010BA00603084000230850009309D31FD258831E03084000230850010309D31FD25883135
:2010DA0020308400033085004E309D31FD258831A03084000330850022309D31FD2588313C
:2010FA00203084000430850040309D31FD258831A03084000430850040309D31FD2588310A
:20111A00203084000530850040309D31FD2588317E102000982822008E1521008E110130EA
:20113A00D820883101228831111CA1280030D820883120001118AD28A62800302E2188310D
:20115A0031228831203022005202031CAA283D008E18AA284E2188310318C2282000111C83
:20117A00C2282200EE01EE0AC52802302200EE00EF016E082E2188314E218831031CD32883
:20119A002000111CD3280030D82088310022883155218831AD28F1001D2927009A171A1BE9
:2011BA00E5281A17CA3020009600FE309700111021000C1249216E100800292188312700E8
:2011DA001A139A1322000C1621000C121030F0009430890BF628F00BF62800324921AE305F
:2011FA0020009600F2309700111021006E1408002921883127001A139A1322000C12210035
:20121A000C121030F0009430890B1129F00B11290032492188312E30200096000A300029D3
:20123A007108003A0319DA28013A0319EA28033A031905292829080022000E1121000E11F9
:20125A000800F0003D2922008C1621008C12080022008C1221008C12080021008C16080039
:20127A007008003A03193A29013A03193029033A031935294829080022000E1121000E15BE
:20129A00080021006E1853290310080003140800203022005202031C08003D008E180800F7
:2012BA0022004808031D6D294030F8002030D0218831CA004A0803196D29C801C80AC90157
:2012DA0048080319822923009E1C822922004908203E8600053087000108C9218831220074
:2012FA00C90A49084A060319C8012000911E93293F3022004B0203189329E1278831A121B8
:20131A0088318100CB0AE1278831810122004C08031DA0294B080319A0294B08F000A030B7
:20133A0060278831CB01062F23009D1CA9291D121908F0001D16AB291908F000F101F10A5F
:20135A002000911AB32923001F1BB72923001D19B729F101710C2100031C91120318911642
:20137A000310911E0314031CC52922008E15C72922008E1170080800F00023009E1CCA29B7
:20139A0070089A000800FA00BA0138080319DA29380886008701811BFE29380A86008701A4
:2013BA00780801020318E52938088600413FF800BA0178083A020318F9293A087A07F900B9
:2013DA008600053087003A08203E84000230850000088100BA0AE629B12788319E23220006
:2013FA00B8003A080800642C3C3021009904903027009B000130192288310230192288314A
:20141A001C228831B73027009A0021228831492188312B238831802F21008C1608009513CB
:20143A00FF3024008C00080021008E160E12243023009E0090309D0017309B009C019C0138
:20145A0008309F001908712F22005208031D422A3D008E0192011630DB2788318E193F2A62
:20147A008E153B2A2200D201D20A5203031D4F2A3D008E1A4F2A9001920112141216023089
:20149A002200D2003D001019121D562A1011EF2688313D008E1C5C2A20001211080010185A
:2014BA00121C652A2B2388310430D2003D001010101A121E6A2AE32688313D00101F842A21
:2014DA00121F772A73302100BF00C001ED278831DE2288313D001013DB23883122004108D4
:0614FA00031DC1034108BF
:20150000031D842A192688313D00901A921E8A2AE62388319018921C982AFF302100BF00D1
:201520007F30C000ED278831DE2288313D0093010430220052020318A02A2000121108000B
:201540003D00921DDB2A2100CD01D82A0F082200D300530C2100CC00CC0C4C0C0F392200B7
:20156000C2003D00901122005319B92A4208513EBB2A4208553E86000330870001308106C7
:201580004208031DC62AA5268831D22A72302100BF005330C001C1000130C200C301C4016E
:2015A000DE22883121000430CD0A4D020318DB2A3D009019A62A200012110800032BD423B1
:2015C0009E315C2E5B269E31092E23006F08031DF12A0130F001F00A4C2588310130F001EE
:2015E0004C2D25006908FB00003021004206031DFB2A7B084106031D0800952788319E23DB
:201600002200D10008004008003A03190B2B7F3A0319252B2A2B3F08013A0319DF2A033A9D
:2016200003192A2B013A0319E22A063A0319E52A773A03192A2B013A03192A2B073A031940
:201640002A2B013A03192A2B2A2B3F08FF3A03192A2B2A2B0800210012113D009301900140
:2016600098010E30F1009930F000F20170088600710887008101F00A0319F10A0330F20A36
:201680007202031C362B16303D00DB278831F301730809070907203E860000308701C03FEE
:2016A000C13FC23FC33F1030F30A7302031C482B3D000E1796010E120E1390112200AF0136
:2016C0002300E201E301E4013D0090195D2B01302300EE00ED00EC01EB012400E501F301C7
:2016E0007308323E86000130870081017308E83E86000230870081017308CF278831730838
:20170000513E860004308101F30A7302031C702B28302200B20016303D0098002000A301C7
:201720006030A2000830A1000430A000A0172200D4012400E3012200D2010800F6007008A9
:201740000319A52BF7278831A72BF327883187000108F7007708031900347108F4007F30AF
:201760007205F5007708023E860087017408C03F7508C13F770A8600730881007708860030
:201780004030810577088600811577088600811770080319CE2BF7278831CF2BF32787001C
:2017A00004308106770808001E30F40001309E31962682310E2A24006508031D0800E30A58
:2017C0006308031D0800FF30E3000800181CFF2B220047088600803087010106031DFD2B80
:2017E0003208860084300106031DFD2B470886000C3081004708860081173D001810901220
:201800000800F50022003C0803190B2C3C0886008701811B080051080319132C5108860089
:201820008701811B08003F08F600E72788310830BD01D5278831A800413FA900423FAA00D1
:20184000433FAB000130AC000330BF007508013A03193A2C033A03193D2C013A0319412CCC
:20186000073A0319452C013A0319482C7A3A03194D2C632C0230AC0008000130F001F00AF5
:201880004C2D0230FB2788314C2D0130F0014C2D0230AC000130F0014C2DD8258831C82790
:2018A00088310230CC017606031D5F2C2B082A042904280401300319602CF0014C2D01301B
:2018C000F001F00A4C2D0800203022005206031D08003F08003A0319782C013A0319082DDD
:2018E000033A0319102D013A0319212D462D080051080319802C510886008701811B080006
:20190000ED016D08203E8600033087006D08A03E84008501000881001F30ED0A6D02031C0C
:20192000812C510A86001F3087010106031DFD2C55302600200653300319210642300319CD
:201940002206433003192306031DFD2C2300EF01EF0A26002D08031DF52C11302E0203182A
:20196000F52C2E080319F52C2C083F39031DF52C53302200A3004230A2005330A1005530E1
:20198000A0000430D5278831A400413FA500423FA600433FA700A801A901AA01AB01AC014E
:2019A000E72788310330BD0126002F060319DC2CF030C105CB01CC01AC1FE22C2200BF01B6
:2019C000BF0AE52C02302200BF0085317F2588310319ED2C2200BB01F02C2200BB01BB0A35
:2019E00026002F082200BE0008000130F001F00A4C2588310130F0014C2D0130F001F00AA5
:201A00004C2588310130F0014C252300EF01080076258831FF3A031D08000330BF0008003F
:201A200076258831FF3A031D08002C08031D0D2D2B082A042904280403190D2D0230AC0075
:201A40000D2D3308EB006B0803192C2D3308EC0086008701811B0800203085317925883108
:201A60000D30F30001309E2388312200BC00510803193F2D510886008701811B442D95279C
:201A800088319E232200D100BF0108000230BF01AC000130F0014C2DF3007308031D612DBC
:201AA0009731DE278831F100F2014608023E86007108C03F72089C273208860004309F312F
:201AC000732FB9278831203E7107F400860087010115740886008117B927243E7107F40095
:201AE000860001157408860081170800AD2785313F2588318A00403F0A008D31003A0319DA
:201B0000892D26002D08E83E860001308700010B9C2DA52788318E2DE735E80D890B8C2DDD
:201B2000E709E80967082600DD05220068082600DE05F5258831D52DA5278831A12DE7356E
:201B4000E80D890B9F2D26005D0822006705E90026005E0822006805EA0069086A04031D2A
:201B6000D32D27005008F00043088A0042080A008D31003A0319992DA5278831C12DE73564
:201B8000E80D890BBF2D67082600DD04220068082600DE044108F0390638C1002830CB002C
:201BA0008531852588318231592222003E08080026003F0880397038BF00F030BF13C0012E
:201BC000C1050A30C1124113C113C201C301C401C501C600C701C801C901CA01CB01CC0173
:201BE000CD01CE01CF01D001080022003E08003A0319122E033A0319082E113A0319102E6D
:201C00000C3A0319122EE33A0319102E172E0800D8254108F0390238C1003A30CB00CC01F2
:201C20008231592A0130AC00FF30BE0008007F30012C23006E08031D08000130EE006D086B
:201C4000031D08000130ED00023022004406031D322E320A8600870181013208860048301C
:201C60009F31732F440B08002400E4012200470A86000830870181006030F000F101470897
:201C8000C127883147088600043081004708860081172400E401E40A2200460A8600083085
:201CA00081006030F000F1014608C12746088600803081000800200060081F39013A031DB3
:201CC00008006408031D08009C2E62086304031D080066086704031D08002200823151225C
:201CE00088312300EF01EF0A25006908F80078080319802E6908F90086008701811B852E80
:201D0000952788319E232200D10080302200AF00080062086304031D080066036704031D24
:201D20000800E80168302200AD00C130AE01B001B00AB101AF0008006108FE3A0319892E63
:201D4000013A0319652EA42E08002D30C1005308FD39031DDA2E53363F3909070907203E69
:201D6000C700C6000430C606470886008701010C890C0F390D3A031DD82E603086002200EA
:201D80004708023E84008501003F2100C900013FCA00490884004A0885000830CB004B0875
:201DA0000319D62E12001E00CB0BD22E9031392897316D2FFD3053052100C900043A031DAA
:201DC00008009E31E32E121510128E1424007530E501E50AE3019631F0268831DE2A2400EC
:201DE0007430E5012100BF000030C001C101C201C301C401DE2288313D008E101211101D96
:201E0000032F1011FF2E2400E30108002300670803190F2F670886008701811B08000330F2
:201E200022004C060319CC014C0803190800023A031D272F0330F001F00AF101F201F30124
:201E40009E232300E70003302200CC0008004C0B080041303902031C2F2F4030302F3908F6
:201E6000F900B902A0302500EC007908F8002400600803193E2F442F8627883178080319CA
:201E8000472F3C2F862788317808031D422F22003908031D532F40307906031D512F023024
:201EA000522F0330CC00A030F001F00AF1000230F2007908F30003309E232300E700080058
:201EC000F1004C08031D080071082500EE0070082200B9002400E001E00A2200CC01CC0A02
:201EE000080023009D17210091160B170B1F7A2F8B177B2F8B1322008E1121008E110800D3
:201F0000C5302000980099011114080025006C088600023087006E088400043085000008BA
:201F20008100EC0AEE0AF8030800A030F001F1004030F201F3000134C13F460886000C30E2
:201F40008100460886008117080001302200E700E80126002D0A2200080027005008F00073
:201F600006342030F001F1000230F2004030F30003347008F100F135F135F135730EF039B2
:201F80000800023E86007008C03F7108C13F08004108F0390538C1002030CB000800553E55
:201FA00086000330870081010800203E860003308700403F080091009F3097007B309200FE
:201FC00008004B08A03E8600043087000800FF30BE002300EA0122000800C101C201C30111
:201FE000C30AC40108007608E83E860002347608323E86000134AC000130F001F00A08006E
:202000008631F22E87312F2F8731B12F87313C2F8731542F84317B2C8431892C8431982C9E
:082020008431AB2C8431B62C95
:20202E001030F301F201F1000330F0000800260002306714E801E9006630E60108001E34D3
:20204E00103417341034FB340734033402345B341334FF3407348E341234003400340034E0
:20206E00003400342200C501C0012300EC01EB012400E4012200C4013208860004308701D9
:20208E008113B2063208860004308113B206460886008113AF01B001B1012300E201E30141
:2020AE00E401602090310330F0268A31DE229031E6292000600E890C0339031D0800610828
:2020CE0084000D3004020318080087310435E13E8200080022000830AF17D20008005929F2
:2020EE004B2D54302200AD000130AE002F14B001B00AAF170800A829992864086B3E2200E3
:20210E00AD0003307C282200AF17200064086B3E8600033087006208810008000230F02695
:20212E008A31DE2A2000620BAD2860081F39031DAD2822000330AF1720006106031DAB2822
:20214E002400E601E60AAD282400E60120006208031D080060081F39023A031D0800640854
:20216E000F390319080064080F39FC0004307C0203180800203022005206031D0800AF17A8
:20218E002000E41BD0281C2790310C279031513ED528262790310C279031553E8600033048
:2021AE00870001082100C7004718DF284811E02848152000E41BE6281C279031E8282627E7
:2021CE0090318700210048088100033020006106031D0E292100480886008701811F052959
:2021EE002000E41BFE2864080F39513E012964080F39553E86000330870081142100480892
:20220E00860087010115480886008117080004302100C8064808860087014808811F21295B
:20222E0086008113860005300117E4268A31DE229031242986008701011704302100C80687
:20224E00C7182E29480886008701811F45292000E41B352964080F39513E382964080F39F9
:20226E00553E86000330870081102100472790310530E4268A31DE229031462947272000E4
:20228E0064080F39983EFC000E30FD01FD3D7C082100C5007D08C6004508860046088700D7
:2022AE0001100800803020006006031D0800C0302200AF009B29E1302200AD009930AE00BD
:2022CE001230B000B10108006208031D85296208F00024304D2790319A3014279031F10072
:1222EE002D08F000023E39279031B0002E08F1002D084C
:20230000F000033E3927B10008002200AF01080004306202031885296208F0001C304D271E
:2023200090319A3014272D0884002E0885000008B000B101080020006308013A0319622984
:20234000033A03196B29013A03198829852908002000E801E901D1292200AF172000681461
:202360002400660BDC292000E814DC292200AF17DC292200AF172000E41BC1291C279031C0
:20238000C3292627903187000108F00086008701811FDC2970088600011DDC290130E800D6
:2023A000DC2960081F390319AC29013A0319B629033A0319B929DC292200AF1F0800683061
:2023C000AD000230AE012F14B00008003D000E122200AF1B082A2300E21FFA29023022005E
:2023E000C40023006B08031DF62927222300ED01EE0108002200460A8600D4260C30810044
:202400004608860081173208860004309F31732F2000E01F1D2A2200C401C40A23006C0838
:20242000031D142A272290312300ED01EE0122004008031D08008E31192E02302200C40084
:20244000460A8600D4269031FA279031142AEC01EB01023022004406031D3D2AE527903100
:20246000F100F2014608023E86007108C03F7208C13F460886004830F52F31082000670240
:20248000031D462A220030082000660203184F2A67082200B100200066082200B0009F31C4
:2024A000342790316830F100F2013208023E860087017108C03F7208C13F320886004830D2
:2024C0009F31732FFA00CB269031A42590317808031D08007A08860001308700A730840091
:2024E000993085002030F900790803197B2A12001E00F90B772A7A08203E86000130870010
:2025000087308400993085002030F90079080319080012001E00F90B892A08006908031DC4
:202520009B2A6808031D9B2A6708031D9B2A02306602031C00346908031D00346808031DEB
:202540000034043066021030673B03180034023063279031031DB62A6B08F0006A080C26F6
:2025600001346B08F0006A08CA2601340330632790310319B12AED0121006D08ED0AEC0050
:2025800040306C02031801346A08860001308700EA0A0108B0239031003A03190134BC2A5B
:2025A000FA00CB269031A425903106307802031C080006307806031DFE2A7A08383E860094
:2025C00001308700F53081007A08393E86008B3081007A083A3E8600163081007A083B3EA0
:2025E0008600EA3081007A083E3E860081017A083F3E860001308101810A08007A088600E1
:2026000001308700F3308400993085001030F900790803190F2B12001E00F90B0B2B7A0811
:20262000322790317A08532FFA00CB269031A42590317808031D522B7A0886000130870069
:2026400038308400993085002B30F900790803192D2B12001E00F90B292B7A082B3E8600FE
:2026600001308700073084009A3085000B30F900790803193F2B12001E00F90B3B2B7A0841
:20268000363E860001308700133084009A3085000830F90079080319080012001E00F90B68
:2026A0004D2B080007307802031C08007A08322790317A08532F4308420441044004031DE8
:2026C000662B4508F8004408D02201344003410442044304031D712B4508F8004408142318
:2026E0000134023068279031031D7B2B4508F8004408BB250134033068279031031D852B64
:202700004508F8004408622201344408CB269031A42590310430210040064104420443047A
:20272000031D0134AF2390313F3E3F394502031801340030F0009830F1004508FB000630CE
:20274000FC01FB35FC0D890BA12B7B08F0077C08F13D4030F200F3014408DD250134683442
:20276000E4001D2D0D3021006406031901340A306406031901343A306406031D00342400D1
:20278000E801E80A2200D0012500E401E501E601E7012400E7010134E43029259031003A0E
:2027A000031DD52B2400E80100342200D00A500BDD2B210064082200CF0002305006031D33
:2027C00001344F0EF039210064072200CF002400E70722001130D0014F020318D22B0230E0
:2027E000732CE43029259031003A0319D22B2200D00A500B032C210064082500E400E501C2
:20280000E601E701013421006408DC00DD01DE01DF01250064082100E00025006508210069
:20282000E100250066082100E200250067082100E3000430E035E10DE20DE30D890B1A2C99
:20284000F82690312500E70021005E082500E60021005D082500E50021005C082500E400DD
:20286000043022005006031D01342500650864072400E70722000330D001732CE430292521
:202880009031003A0319D22B2200D00A500B4C2C21006408031DD22B023022005006031DE1
:2028A0000134210064082200CE00210064082400E70722000430D0012400E8002200A030A2
:2028C000CD01F0000330F100FF30F2001030F301F400F501A425903122004E080319013484
:2028E0004E0B762C05302400E800013404304E0603190134D22BE43029259031003A031918
:20290000D22B2200D00A500B8A2C2B279031640EF0398100023022005006031D0134D001AE
:202920002B2790316408810722004D08A03E860001082400E7072200CD0A4D084F06031DD7
:202940000134722CE43029259031003A0319D22B2200D00A500BB12C2100640EF03924001A
:20296000E707023022005006031D0134D001210064082400E7076708031DD22BE801220063
:202980004E08031DEB2C26005908250064072100DC0026005A082500653D2100DD00260023
:2029A0005B082500663D2100DE0026005C082500673D2100DF005F08CD005E08CC005D08CF
:2029C000CB005C08CA00A030CE0022004F082100CF000D26013404304E06031D132D270080
:2029E00021082100DC00DD01DE01DF015D08DF005C08DE00DD01DC01270020082100E30080
:202A0000E201E101E001F8262600DC0021005E082600DB0021005D082600DA0021005C085D
:202A20002600D90001344E03031D0034B4262600D901DA01DB01DC01013424006808840002
:202A4000063004020318013488310435003E82000134F0008600303087010102031C00344F
:202A60007008860030308102700886000A30010270088600031C452D870181127008860092
:202A800007308701810270088600103087010102031C0134003422000E30AF172100C60096
:202AA0009930C500C70145088600460887008101C50A0319C60A0330C70A4702031C532DEF
:202AC0002030F0004030F10121279031A4253D000E172100C80148088F31CF27903148081F
:202AE000513E860004308101C80A4802031C6B2D6B30F0000330F100033021279031A42584
:202B000090313D000E1328302200B2002030C700C600200062082200D4005408031D932DD1
:202B20001030D200080021005430BF01BF0AC001C1000130C200C301C30AC4018A31DE22C7
:202B400020302200D20008007108F7007008F6000130F4020030F53B740FB12D750A0319C8
:202B60000800760886007708870072088100F60A0319F70AA82DF900CB269031A425903121
:202B80007808031D08007908860001308700F8308100790A8600FF3081007908023E860025
:202BA000FF3081007908033E8600FF3081007908043E86000F3081000800F600F7007208F5
:202BC000730401300319032EF2020030F33B7708860001308700F70A7108F5007008F40016
:202BE000F00A0319F10A8400750885000008C03F89080319022EDF2D770886000130870091
:202C00008101F70A0130F2020030F33B720FFC2D730A03190800FC2D08004A36DB001F3088
:202C2000DB05C0304A05D7004B08D8004C08D9004D08DA00DA36D90CD80CD70C24006C08C3
:202C400021005A06031D342E24006B0821005906031D342E24006A0821005806031D342E41
:202C600024006908210057060319482E8A26903121005A082400EC00210059082400EB001A
:202C8000210058082400EA00210057082400E9002100CF0A4F10602E20305B020318632ED8
:202CA00058279031D300D40102279031D3075108D43D402790315308C03F54085E279031DA
:202CC0004F08031D4C2E20305B06031D08008A26903121004F080319080020302400E907B9
:202CE0000030EA3DEB3DEC3D2100DB014F080319080058279031D500D60102279031D50702
:202D00005108D63D402790315508C03F56085E279031762EFF302100C700C800C901493554
:202D2000203E860004308700403FC500413FC6004508C7054608C8052030C90A4902031CA9
:202D40008F2E470FA62E480A0319080085318F2590312030F0000430F100FF30F2004030F5
:202D6000F301F400F501A42D8A269031B72EC5268F3171279031013089312E21FF302400BD
:202D8000E900EA00EB00EC00080021008E140E14893149290800F0000130F1004030F201F3
:202DA000F301F400F50108000830870181006030F300F4014608023E86007308C03F74086A
:202DC000C13F460886000800BF00C0014808C100FF39031D0030C200C301C30AC4010800DE
:202DE0002100BF00C001C101C201C301C40108006008DC076108DD3D6208DE3D6308DF3D42
:202E00005F080800CE0A4E0886000108D000D101D100D00150080800870001082100C80069
:202E2000200064080F390800713D8500003F2200AD00013FAE00080064080F39E83E86001F
:202E40000234F201F301F400F501080064080F39323E860001344D08A03E86000330870011
:202E6000210008003E3E860001308700553081000800840071080318710A85000008080039
:202E8000CE0A5B35203E8600043087000800480886003B30870181050800F101F035F10DB7
:202EA0007007840008003F3E8600AA30810008004E0886000330870001080800C13FDB0A1D
:202EC000CF03CF030800660667046804690408004006410442044304080002304406031DD2
:202EE000722F852FC40124006408031D832FDE27F600F7014608023E86007608C03F770853
:202F00008F319C270800E4010800470886008701413FF500F200F301730823006402031D5D
:202F2000932F720863020318972F6308F5007508E302031CE403F401750874020318AD2F68
:202F400060088600033087007408683E8400850100088100E00AF40A9C2F63086404031972
:202F6000C22F2200E5279031EB279031470886004608011BBE2F86004830F52F8600083092
:202F80008701F52FDE279031EB27903146088600FA2790312300650866040319D62F9F314B
:202FA000782790318A00403F0A0097312300E21322004008031D08008E31192E2200460AB4
:202FC00086000830870181006034460A86000830870181006834F200F3014608023E8600E9
:202FE0007208C03F7308C13F080081004608860081170800043081004608860081170800B7
:203000003C34683474346D346C343E343C3468346534613464343E343C346D3465347434B3
:203020006134203468347434743470342D34653471347534693476343D3422347234653482
:20304000663472346534733468342234203463346F346E34743465346E3474343D3422347C
:2030600030343B34553452344C343D34273468347434743470343A342F342F346D34693420
:20308000633472346F3463346834693470342E3463346F346D342F346D34633470343234FA
:2030A00032343234313461342734223420342F343E343C342F3468346534613464343E34C9
:2030C0003C342F34683474346D346C343E3400340934023462340034033401340234C0341F
:2030E000323409340434003400340234083406345034003407340534813402344034003422
:203100000134073405340134023440340034013408340B3401340234023402340134003403
:203120000934043401340034013402340234013400340534243400342034013404342434C9
:2031400002340234053424340634013402340534243401340034023407340534823403343C
:203160000A3400340234093404340234003402340A340034003400340734053403340234D7
:2031800040340034003407340534833402344034003400343A3403344D34003469340034EB
:2031A00063340034723400346F3400346334003468340034693400347034003420340034C7
:2031C000433400346F3400346D340034703400346F34003473340034693400347434003461
:2031E0006534003420340034443400346534003476340034693400346334003465340034BA
:203200000034003400340034343403344D3400346934003463340034723400346F3400343D
:2032200063340034683400346934003470340034203400345434003465340034633400346E
:20324000683400346E3400346F3400346C3400346F3400346734003479340034203400340E
:20326000493400346E340034633400342E340034EB343C3490344D34533444344F34533489
:2032800035342E3430340034023408340134003401341034003400340034F8340134003446
:2032A0003F340034FF34003401340034003400340334103400340034003400342934323421
:2032C00067349434C434003480340434023420340034003400344D346934633472346F344F
:2032E0006334683470344D346134733473342034533474346F3472346134673465342034AA
:203300002034203420343034303430343134443452344934563445345234203420344834F8
:2033200054344D342034003400344034083409344B3409344B34003400344034083409344B
:203340004B3402340034683400340034003443344C34493443344B3442344F3441345234EE
:20336000443420340834003400344034083409344B3409344B340034003440340834093460
:203380004B340034003400340034003400341A3403343134003432340034333400343434BB
:2033A000003435340034363400343734003438340034393400343034003439340034393418
:2033C00000341234013400340234EF34023401340834D83404345734003401340034013469
:2033E0000234033401340134003401340734FF34E634013400340034003403341034003485
:20340000003400340034043403340934043443344C34493443344B3442344F3441345234CE
:2034200044342034003446344134543431343234203420342034003403349A340434993410
:0C344000CA349834C73499346834983486
:203BFA00640080010131890BFE2D0034FE0012001E00FE0B042E0034200060081F39013AE9
:203C1A00031D0800600E890C0339013A031D080064030319442E02306406031D0800442E95
:203C3A0056260830B000B1012F142200AF17080056269E31222E67082300E4002000660882
:203C5A002300E300B030E0000D30E5000830E600E21708005F302200AD000330AE000730CD
:203C7A00B000C130B101AF0008006208222E6108003A03191D2E013A0319252E213A03193B
:203C9A00282E013A0319372E033A0319422E552E0800BA302200AD000330AE000800782664
:203CBA009E3126000830E301E5000730E401DC268A3121229E31FA017A08A03E86000430F4
:203CDA00870040308101FA0A7A02031C692E2200CB01CA0108000730DC269E310830E30136
:203CFA00E401E50022001A30BA01F400023096269E311E30F400033096268F31B1279E3170
:203D1A008B319E232200B8002300E7012200CC010800F900741D9C2EF001B3269E31F41C33
:203D3A00A22EF001F00A7908B3267908983EF5000E30F601F63D7508F7007608F800770837
:203D5A00860078088700740881000800F2002030F3007008F100F1357208090709077107E1
:203D7A0009070907F30773088600870181137008031DCC2E7208E83E86000230D02E720890
:203D9A00323E8600013087007308810073088600870101137308043E860001170800E2017C
:203DBA00E100A130E0002030DF00080022003208860000308701011B0130F4000430B20659
:203DDA0008305206031DFE2E200062087F393D00960016080319FB2E1030FC2E04302200B5
:203DFA00D200440B232F6830F200F3013208023E860087017208C03F7308C13F34279E3112
:203E1A0002304506031D162F3208860004308701732F7408031D1E2F3208860048308701DF
:203E3A00732F3208860008308701732F2300E21F312F6508660403192F2F78278A00403F27
:203E5A000A009F312300E2132200C40108000830F000003022003102083003193002031819
:203E7A004A2F3008F0004508031D462FC501C50A4A2F450B4A2F0230C5007008B002031C8E
:203E9A00B103320A86008701700881006830C3002F1C5A2F602F64279E317008031908005D
:203EBA00582F64279E317008031908005E2F4308860087012D0884002E0885000008810088
:203EDA00AD0A0319AE0AC30AF0030800810032088600811708000530E03E86000130870003
:063EFA00413F0800CC0668
:020000040001F9
:04000E008CCFCEDFE6
:00000001FF
