:04000000FEEF0FF010
:02000800FF00F7
:100F8A003F01B88F1200050E89EC09F002BE12006B
:100F9A00FAD7016E3901A3A9FDD7600007F0EAFD6F
:100FAA0012003F011551026E1651036E1751046E5D
:100FBA00056A1200600E3901D96FDB6BDD6B080E12
:100FCA00DF6FDE6B1200026E3901688D68B1FED7E1
:100FDA0060000BF060F91200C8EC0AF0416A430E97
:100FEA00406E4992200E3F6EC8EF07F0020E3F0195
:100FFA00B86F4B0EB96FB769B66B3901A39FC5EFCE
:10100A0007F0456B426B436B140E466F476B406BA0
:10101A00486B0F0E416F840E446F840C3901E589C9
:10102A00550EE66FAA0EE66FE583E5A702D0D890C3
:10103A00AA0CD8801200530E3F01AC6F060EAE6F99
:10104A00030EAD6F150EAF6FF40EAB6FAC8FF40CD1
:10105A00680EA06F010EA26FA16B140EA36F9F6999
:10106A009E6B3901A7913F01A08F1200C8EC07F0CF
:10107A00180ECEEC07F0180ECEEC07F0180ECEECD8
:10108A0007F0406A3F6A12000E0E3C01576F586B18
:10109A00596B5A6B5B6B020E5C6F5D6B5E6B5F6BC1
:1010AA00820E566F820C0A0E3C01756F0C0E766F1B
:1010BA00776B786B796B020E7A6F7B6B7C6B7D6BCF
:1010CA00860E746F860C060E946F966F030E956FDC
:1010DA00140E976FDE0E936F926B3901A991998165
:1010EA003F01948F12000E0E3C016B6F280E6C6F3D
:1010FA006D6B6E6B6F6B020E706F716B726B736BD5
:10110A00820E6A6F820C010EFC6F2DEC0DF02250DC
:10111A0015243F01FD6F23501620FE6F000E172085
:10112A00FF6F010EFC6F1200010C3901DEAB03D018
:10113A00800E016E01D0016A3901DEAB03D0400E88
:10114A00026E01D0026A025001103901DE1112004A
:10115A00800E3F011E6F440E1F6F206B010E216F20
:10116A001A0E236F190E226F0F0E1D6F420E1C6F7F
:10117A00400E1B6F1F8F400C9AEC08F0046E04504F
:10118A00800A890FD8A0120004043F0BDE6F150EE7
:10119A00036EC60EE82EFED7032EFCD700D012002F
:1011AA009AEC08F0046E0450800A760FD8B0120048
:1011BA0004283F0BDE6F150E036EC60EE82EFED70F
:1011CA00032EFCD700D0120000EE00F211EE07F059
:1011DA00EE6AE550E150FCE1E250FAE1496A00EEBC
:1011EA0036F0130EEE6AE806FDE10001B5EF0EF0E7
:1011FA00066A0DD060000BF0D9FF60000FF0DAFF2D
:10120A00DF500626024A032A0406D8A0050604501F
:10121A000510F0E10650000812003D01FA6BE00EDD
:10122A00F21778EC08F02FEC0AF03D01F3BF06D074
:10123A00F66B1F0EF56FF28F020EF46F470EF4175E
:10124A00300EF213800EF36F800C026E12EC09F06E
:10125A0060000BF0E8FF060E3F01F66F160EF76FFF
:10126A00000EF86F0900F55007E1025204E0020689
:10127A000900F55001E112000266F4D7CEEC07F03E
:10128A00F1D712003FEC0CF0F5B804D0800E196EBD
:10129A0016D802D0196A13D889EC0DF0ABEC09F014
:1012AA00B3EC0DF019500D5C156E1A500E58166EEF
:1012BA001B500F58176E1C501058186E12001A6ADD
:1012CA001B6A1C6A12002250B0EC0EF0DE6ADD6A5C
:1012DA002DEC0DF02250D96EDA6A600057F0DEFF6D
:1012EA0060005BF0DEFF60005FF0DEFF600063F02D
:1012FA00DEFF020E97EC0EF02250ABEC0EF0080067
:10130A006F00D7FFDFFF040C036E20EC08F0AC512E
:10131A000318F00B0318AC6FAA6B3901A49510D00F
:10132A003B01EC513D5CED513E580AE23D50D96E0D
:10133A003E50DA6E3D4A3E2ADF50016E026A1200C2
:10134A003901A4A5EDD7016802681200096A0A6A80
:10135A000B6A0C6A01A008D00550092606500A2219
:10136A0007500B2208500C22D8900536063607364D
:10137A000836D89004320332023201320150021088
:10138A0003100410E7E1600024F001F0600028F087
:10139A0002F060002CF003F0600030F004F012005C
:1013AA0049A019D0025012E021D804E0056A800E43
:1013BA00046E03D0040E056E046A0250D96EDA6A0E
:1013CA00600013F0DEFF600017F0DDFF030E026E0F
:1013DA00020E036E1200025006E00250D96EDA6A5B
:1013EA00000EDE6ADD6A026A036A1200600003F810
:1013FA00E8FF020A120011D01AD8F51808E017D827
:10140A00F550095C026E036AD8A003061200024A6C
:10141A00032A042A000E052206220706D8A0080677
:10142A000728EAE10828E8E1026A036A1200600074
:10143A000BF0D9FF60000FF0DAFFDF50096E600091
:10144A0013F0F6FF600017F0F7FF60001BF0F8FFDB
:10145A0008001200850E3F01C26F3A01606B506BA3
:10146A00406B870E416F100E516F626B526B426B6D
:10147A00550EBF6FAA0EBF6FBF91E651E00B0D0963
:10148A00E66FF5EC0FF0E551E00B0C09E56F020E83
:10149A00016F010E056F6E0017F803FA2E0E066F24
:1014AA006E001BF804FA550EBF6FAA0EBF6FBF81FC
:1014BA00AA0C600010F009F0600014F00AF0600055
:1014CA0018F00BF0600008F00CF060000CF00DF062
:1014DA001CD0600027F0F6FF60002BF0F7FF6000D9
:1014EA002FF0F8FF08006F00D4FF0EF0092A000E53
:1014FA000A220B22600033F0D9FF600037F0DAFFCE
:10150A0060003BF0DFFF0C4A0D2A0706D8A0080648
:10151A000728DFE10828DDE112003901626B636BFD
:10152A000450051019E026D811D068AD688D68B14D
:10153A000DD060000BF0D9FF60000FF0DAFFDF502A
:10154A00606F024A032A0406D8A005060450051053
:10155A00ECE168BBFED7686B63516E0088F506F054
:10156A00076A600018F007F0066A0610026E075054
:10157A00036E1200900E686F7F0E696F100E676F10
:10158A00210E666F210C3901EFB111D0F16B010EFA
:10159A00F26F020EF36F030EF46F040EF76FD29E12
:1015AA003901550EEF6FAA0EEF6FEF81D28E3B0114
:1015BA00FC9F600EFD6FE80EF96F3D0EFA6FFB6B34
:1015CA00020EF16F000EF06FF86B010EF76F040E4A
:1015DA00EF6F070EEE6FEA6BEB6B1B0EFF6FFC8D66
:1015EA00FE6BFC953901A293A2913B01FC8F6E0020
:1015FA00C0FF3DF06E00C4FF3EF012000D0A5862B3
:10160A006F6F743A415050736967206661696C0064
:10161A000D0A58626F6F743A415050435243206624
:10162A0061696C000D0A58626F6F743A426F6F7489
:10163A0062617564000D0A0A58626F6F743A476FE7
:10164A00746F626F6F74000D0A58626F6F743A5646
:10165A00657273696F6E20312E300D0A58626F6F92
:10166A00743A5761697420584D4F44454D3E0D0AEE
:10167A0000001200320E076EADEC08F0100E086E74
:10168A00096A0A6A0B6A0C6A3901A1BD02D0A1ABC8
:10169A00FBD7A1BB1200A19DD6EC07F00250092688
:1016AA0003500A2204500B2205500C22082EECD7B4
:1016BA00040E066ED8900C320B320A320932062E0C
:1016CA00F9D70C500B100A1003E1AC0E095C03E3C6
:1016DA00C1EC08F009D00C500B100A1005E1AA0E53
:1016EA00095C02E2D5EC08F0072EC6D712006000AA
:1016FA0000F115F0405003E04050CEEC07F0100E18
:10170A003F6002D0150E406E3F5053E04990C8EC3E
:10171A000AF0030E89EC09F0600004F013F060008F
:10172A0008F014F014BE40D02ED0430E151801E173
:10173A004982020E3F6401D03F6EB0EC0CF006E322
:10174A004980020E3F6E060E406E2ED0000E6F00CC
:10175A00A0FF00F229D0C8EC07F0010E3F6E060E7A
:10176A00CEEC07F0D8901200030E89EC09F0180E9F
:10177A000118021019E1010E3F6EC8EC07F0060EBF
:10178A00CEEC07F0EFD760004CF011F0600050F09B
:10179A0012F0125009E11150010AC7E0030AC5E02C
:1017AA00060AD9E01C0AE0E03F5001E03F06D88073
:1017BA0012003BEC08F0D6D75DD8F5AE57D03F0102
:1017CA00000ED2BF010E2A6ED29F47EC09F06000CC
:1017DA0054F026F0600058F027F060005CF028F022
:1017EA00600060F029F0F66AA6EC0EF06F00D4FFF4
:1017FA0022F0D89022342B6E840E3901E56F2DEC3D
:10180A000DF015503F01F66F60005BF0F7FF6000C6
:10181A005FF0F8FF0ED013EC08F01BE32B50226E9A
:10182A00236A246A22503F01F6272350F7232450C3
:10183A00F823F651226EF751236EF851246E256A69
:10184A002650225C275023582850245829502558BE
:10185A00E2E3080E3901E5172AA003D03F01D28F2F
:10186A0002D03F01D29F3901E5A702D0D8901200D9
:10187A00D8801200060EF66EF76A300EF86E08006F
:10188A000001300C390162696369BFEC0AF03A5011
:10189A00086E3B50096E3C500A6E0B6A0850E8EC21
:1018AA0007F00950E8EC07F00A50E8EC07F00B5093
:1018BA00E8EC07F0688D040E08243F01F66F000E6D
:1018CA000920F76F000E0A20F86F365008263750A5
:1018DA00092238500A2239500B2209D0390168AD41
:1018EA00688D68B104D009006F00D7FF60F93F0125
:1018FA00F651036EF751046EF851056E066A0850E8
:10190A000318ECE109500418E9E10A500518E6E168
:10191A000B500618E3E1390168BBFDD7686B076A0B
:10192A006000EBF0F6FF6000EFF0F7FF6000F3F005
:10193A00F8FF0800F550621909E1020E3A24ECECAE
:10194A000FF0F550631902E1010E076E60001CF0FA
:10195A0003F003301200FBEC09F003E00F6A830E78
:10196A0003D0040E0F6E030E0E6E010E49A2000E76
:10197A000E240C6E000E0F200D6E0AD0030E89EC99
:10198A0009F002AE02D0D89012000C06D8A00D06BB
:10199A000C500D10F3E1600008F808F020EE01F297
:1019AA00DF500818FF0AEFE120EE01F24150DE187D
:1019BA0011E020EE01F2DF50086E096A41500A6E0A
:1019CA000B6A0A2A000E0B2208500A18DCE1095099
:1019DA000B18D9E149A21ED0600003F8E8FF010AFA
:1019EA000BE131D8056A800E046E92EC0AF020EE03
:1019FA0083F20AD0010E1FD026D8040E056E046A9F
:101A0A0092EC0AF021EE03F2DE50021813E1DE50E6
:101A1A0003180FD0030E026E020E036E056A800EC3
:101A2A00046EFDEC08F00008086E20EE83F2DE502A
:101A3A000818E0E0000E106E1050A5E0600004F8EF
:101A4A0041F0D8801200030E026E020E036E1200DD
:101A5A003FEC0CF0F5B63AD0196A1A6A020E1B6E00
:101A6A001C6A060EF66EF76A300EF86E08006F00F2
:101A7A00D4FF1DF01D50070BE82A05D0D8901C3260
:101A8A001B321A321932E82EF9D7600064F020F0BE
:101A9A00600068F021F038D8ABEC09F05FD8D89034
:101AAA0010320F320E320D32600034F01EF0600038
:101ABA0038F01FF020501E5C21501F581CE26000B5
:101ACA0078F020F060007CF021F015D0F66A92ECF4
:101ADA000EF06F00D4FF20F00A006F00D4FF21F04F
:101AEA00203621362006D8A02106FC0E20121F0E11
:101AFA002112204A212A600080F015F0600084F04B
:101B0A0016F0176A186A1200F66AF7683F0EF86E3E
:101B1A0009006F00D4FF11F009006F00D4FF12F022
:101B2A00600044F001F0600048F002F0036A046AC1
:101B3A00040EF66EF7683F0EF86E09006F00D4FFC8
:101B4A0013F009006F00D4FF14F060004CF005F0A8
:101B5A00600050F006F0076A086A1200D890013453
:101B6A000D6E02340E6E03340F6E0434106E1200C2
:101B7A001C6EF66AE6D86F00D4FF16F0D8901634B9
:101B8A00246E1550D96EDA6A6F0078FF20F06F0064
:101B9A0078FF21F06F0078FF22F06F0078FF23F0C2
:101BAA001550D9D86F0078FF1EF06F0074FF1FF030
:101BBA0016681768F66AB1D86F00D4FF18F00900E2
:101BCA006F00D4FF19F0D890183619361650182617
:101BDA00175019222050181621501916185019108A
:101BEA003FE11550B3D8DE50245C3AE33F01000EC2
:101BFA00D2BF010E1D6E89EC0DF0ABEC09F0B3EC0F
:101C0A000DF00D50205C0E5021580F5022581050E4
:101C1A00235855E2000E026E010E036E600080F03A
:101C2A0004F0600084F005F0600088F006F06000BF
:101C3A0090F007F0086A5EEC0AF014D0010100295E
:101C4A0013E060007BF0D9FF60007FF0DAFF0051FB
:101C5A00DE180AE01C5004E06AD813EC08F004D03D
:101C6A00D89012002450EAE1020E5CD808006F00F6
:101C7A00D4FF24F05CD8256A1FD025501E24D96EC3
:101C8A00000E1F20DA6EDF503F01F56F2550166EE9
:101C9A00176A1868196824501A6E1B6A18501A268F
:101CAA0019501B2216501A1805E117501B1802E189
:101CBA000C0001D00D00252A2450255CDEE3840E99
:101CCA003901E56F3F01D29F550E3901E66FAA0E21
:101CDA00E66FE583080EE5171DA003D03F01D28FFA
:101CEA0002D03F01D29F600078F002F060007CF0E1
:101CFA0003F0600080F004F0600084F005F06000FA
:101D0A0088F006F0600090F007F0086A00EC0AF02C
:101D1A0002500310A5E1D8801200F7683F0EF86E52
:101D2A0009003F0CF66EF7683F0EF86E3F0C600034
:101D3A0083F0F6FF600087F0F7FF60008BF0F8FF92
:101D4A001200F7683F0EF86E08003F0CD96EDA6A87
:101D5A00040ED926040CD96EDA6A050ED926050CAA
:101D6A0039019A6B996B986B976B966B956B946B21
:101D7A00936B926B916B906B3F01D26BD29F550E16
:101D8A00D46FAA0ED46FD491BA6B870EC26F3A0180
:101D9A00406B860E416F518B5189DFEC07F0150EAF
:101DAA002C6EC60EE82EFED72C2EFCD700D03F0193
:101DBA00CABFFDD768EC08F0D28F2DEC08F0CAAF85
:101DCA00FED73901A7A102D0498601D04996550EFE
:101DDA003A010BD9BF91409F03D9550E06D9BF814D
:101DEA0049EC08F03FEC0BF0420E226E68EC09F069
:101DFA002DEC0DF015503A6E600058F03BF0600083
:101E0A005CF03CF0040E3A24E2D86F00D4FF2CF0C8
:101E1A00050E3A24DCD86F00D4FF2DF02D500F0B9D
:101E2A002F6E2E6A2C502E24306E000E2F20316E0B
:101E3A00326A31BE32063250336E070ED8903036CF
:101E4A00313632363336E82EF9D76000C0F036F034
:101E5A006000C4F037F06000C8F038F06000CCF0E1
:101E6A0039F03D01F3AF04D0030E2AEC09F049849E
:101E7A003A28ADD8F550F50A15E1030E3A24A7D849
:101E8A00F550FA0A0FE1050E3A24A1D86F00D4FFE3
:101E9A002CF02C380F0B0F0A05E13650371038108A
:101EAA00391004E1000E2AEC09F0498447EC09F0E4
:101EBA003650155C3750165838501758395018583C
:101ECA000EE247EC09F0600054F036F0600058F07A
:101EDA0037F060005CF038F0600060F039F047ECF1
:101EEA000CF004E2010E2AEC09F0498449A604D058
:101EFA00020E2AEC09F0498449A45DD0FBEC07F0F4
:101F0A0006EC08F058EC08F0040E2AEC09F020EC74
:101F1A0008F0F1EC07F03ED0340E026ED5EC09F071
:101F2A00600008F047F060000CF048F04750481095
:101F3A0031E049BA29D0E1EC0BF002E3498A01D039
:101F4A00499A49BA21D03BEC08F027D0420E156EC7
:101F5A00010EBDEC0DF012E34650010DF350472679
:101F6A00F450482246504226000E4322442245227B
:101F7A004650345E000E355A499806D049A803D017
:101F8A003BEC08F007D0498835BE04D03550DEE175
:101F9A003404DCE27CEC0BF0BFE2290E2D6E960EC7
:101FAA002C6E7F0EE82EFED72C2EFCD72D2EFAD7BC
:101FBA0000F0FF00F2D7390199913F01949FD29F17
:101FCA00236A060E226E88EC08F0FEEF0FF0F66E1A
:101FDA00000E3B20F76E000E3C20F86E080012003F
:101FEA00D951E00B0709D96F1200BF6FAA0EBF6F54
:061FFA00AA0CE9EF08F05B
:020000040020DA
:10000000FF0FFF0FFF0FFF0FFF0FFF0FFF0FFF0F80
:020000040030CA
:0A0000008CDFF9F49FFFF4FCFFFF12
:00000001FF
